{
  "address": "0x1F306294377364fa0651ec808c275B218bC4662f",
  "abi": [
    {
      "inputs": [
        {
          "internalType": "address",
          "name": "_nftlAddress",
          "type": "address"
        },
        {
          "internalType": "address",
          "name": "_heroesAddress",
          "type": "address"
        }
      ],
      "stateMutability": "nonpayable",
      "type": "constructor"
    },
    {
      "anonymous": false,
      "inputs": [
        {
          "indexed": true,
          "internalType": "address",
          "name": "user",
          "type": "address"
        },
        {
          "indexed": true,
          "internalType": "uint256",
          "name": "tokenId",
          "type": "uint256"
        },
        {
          "indexed": false,
          "internalType": "uint256",
          "name": "amount",
          "type": "uint256"
        }
      ],
      "name": "Harvest",
      "type": "event"
    },
    {
      "anonymous": false,
      "inputs": [
        {
          "indexed": true,
          "internalType": "address",
          "name": "previousOwner",
          "type": "address"
        },
        {
          "indexed": true,
          "internalType": "address",
          "name": "newOwner",
          "type": "address"
        }
      ],
      "name": "OwnershipTransferred",
      "type": "event"
    },
    {
      "anonymous": false,
      "inputs": [
        {
          "indexed": true,
          "internalType": "address",
          "name": "user",
          "type": "address"
        },
        {
          "indexed": true,
          "internalType": "uint256",
          "name": "tokenId",
          "type": "uint256"
        }
      ],
      "name": "Stake",
      "type": "event"
    },
    {
      "anonymous": false,
      "inputs": [
        {
          "indexed": true,
          "internalType": "address",
          "name": "user",
          "type": "address"
        },
        {
          "indexed": true,
          "internalType": "uint256",
          "name": "tokenId",
          "type": "uint256"
        }
      ],
      "name": "Unstake",
      "type": "event"
    },
    {
      "inputs": [],
      "name": "baseRewardPerSecond",
      "outputs": [
        {
          "internalType": "uint256",
          "name": "",
          "type": "uint256"
        }
      ],
      "stateMutability": "view",
      "type": "function"
    },
    {
      "inputs": [
        {
          "internalType": "uint256",
          "name": "_tokenId",
          "type": "uint256"
        }
      ],
      "name": "getStake",
      "outputs": [
        {
          "internalType": "bool",
          "name": "staked",
          "type": "bool"
        },
        {
          "internalType": "address",
          "name": "stakerAddress",
          "type": "address"
        },
        {
          "internalType": "uint256",
          "name": "lastUpdateTime",
          "type": "uint256"
        },
        {
          "internalType": "uint256",
          "name": "totalYield",
          "type": "uint256"
        },
        {
          "internalType": "uint256",
          "name": "harvestedYield",
          "type": "uint256"
        }
      ],
      "stateMutability": "view",
      "type": "function"
    },
    {
      "inputs": [
        {
          "internalType": "address",
          "name": "_staker",
          "type": "address"
        }
      ],
      "name": "getStakedTokens",
      "outputs": [
        {
          "internalType": "uint256[]",
          "name": "",
          "type": "uint256[]"
        }
      ],
      "stateMutability": "view",
      "type": "function"
    },
    {
      "inputs": [
        {
          "internalType": "uint256",
          "name": "_tokenId",
          "type": "uint256"
        }
      ],
      "name": "getTokenRewardPerSecond",
      "outputs": [
        {
          "internalType": "uint256",
          "name": "rewardPerSecond",
          "type": "uint256"
        }
      ],
      "stateMutability": "view",
      "type": "function"
    },
    {
      "inputs": [
        {
          "internalType": "uint256",
          "name": "_tokenId",
          "type": "uint256"
        }
      ],
      "name": "harvest",
      "outputs": [],
      "stateMutability": "nonpayable",
      "type": "function"
    },
    {
      "inputs": [],
      "name": "heroesToken",
      "outputs": [
        {
          "internalType": "contract Collection",
          "name": "",
          "type": "address"
        }
      ],
      "stateMutability": "view",
      "type": "function"
    },
    {
      "inputs": [],
      "name": "nftlToken",
      "outputs": [
        {
          "internalType": "contract IERC20",
          "name": "",
          "type": "address"
        }
      ],
      "stateMutability": "view",
      "type": "function"
    },
    {
      "inputs": [
        {
          "internalType": "address",
          "name": "",
          "type": "address"
        },
        {
          "internalType": "address",
          "name": "",
          "type": "address"
        },
        {
          "internalType": "uint256",
          "name": "",
          "type": "uint256"
        },
        {
          "internalType": "bytes",
          "name": "",
          "type": "bytes"
        }
      ],
      "name": "onERC721Received",
      "outputs": [
        {
          "internalType": "bytes4",
          "name": "",
          "type": "bytes4"
        }
      ],
      "stateMutability": "nonpayable",
      "type": "function"
    },
    {
      "inputs": [],
      "name": "owner",
      "outputs": [
        {
          "internalType": "address",
          "name": "",
          "type": "address"
        }
      ],
      "stateMutability": "view",
      "type": "function"
    },
    {
      "inputs": [],
      "name": "renounceOwnership",
      "outputs": [],
      "stateMutability": "nonpayable",
      "type": "function"
    },
    {
      "inputs": [
        {
          "internalType": "uint256",
          "name": "_baseRewardPerSecond",
          "type": "uint256"
        }
      ],
      "name": "setBaseRewardPerSecond",
      "outputs": [],
      "stateMutability": "nonpayable",
      "type": "function"
    },
    {
      "inputs": [
        {
          "internalType": "uint256",
          "name": "_tokenId",
          "type": "uint256"
        }
      ],
      "name": "stake",
      "outputs": [],
      "stateMutability": "nonpayable",
      "type": "function"
    },
    {
      "inputs": [
        {
          "internalType": "address",
          "name": "",
          "type": "address"
        },
        {
          "internalType": "uint256",
          "name": "",
          "type": "uint256"
        }
      ],
      "name": "stakedTokens",
      "outputs": [
        {
          "internalType": "uint256",
          "name": "",
          "type": "uint256"
        }
      ],
      "stateMutability": "view",
      "type": "function"
    },
    {
      "inputs": [
        {
          "internalType": "uint256",
          "name": "",
          "type": "uint256"
        }
      ],
      "name": "stakes",
      "outputs": [
        {
          "internalType": "bool",
          "name": "staked",
          "type": "bool"
        },
        {
          "internalType": "address",
          "name": "stakerAddress",
          "type": "address"
        },
        {
          "internalType": "uint256",
          "name": "lastUpdateTime",
          "type": "uint256"
        },
        {
          "internalType": "uint256",
          "name": "totalYield",
          "type": "uint256"
        },
        {
          "internalType": "uint256",
          "name": "harvestedYield",
          "type": "uint256"
        }
      ],
      "stateMutability": "view",
      "type": "function"
    },
    {
      "inputs": [],
      "name": "stakesOpen",
      "outputs": [
        {
          "internalType": "bool",
          "name": "",
          "type": "bool"
        }
      ],
      "stateMutability": "view",
      "type": "function"
    },
    {
      "inputs": [],
      "name": "start",
      "outputs": [],
      "stateMutability": "nonpayable",
      "type": "function"
    },
    {
      "inputs": [],
      "name": "stop",
      "outputs": [],
      "stateMutability": "nonpayable",
      "type": "function"
    },
    {
      "inputs": [
        {
          "internalType": "address",
          "name": "newOwner",
          "type": "address"
        }
      ],
      "name": "transferOwnership",
      "outputs": [],
      "stateMutability": "nonpayable",
      "type": "function"
    },
    {
      "inputs": [
        {
          "internalType": "uint256",
          "name": "_tokenId",
          "type": "uint256"
        }
      ],
      "name": "unstake",
      "outputs": [],
      "stateMutability": "nonpayable",
      "type": "function"
    },
    {
      "inputs": [
        {
          "internalType": "address",
          "name": "_to",
          "type": "address"
        },
        {
          "internalType": "uint256",
          "name": "_amount",
          "type": "uint256"
        }
      ],
      "name": "withdrawNftl",
      "outputs": [],
      "stateMutability": "nonpayable",
      "type": "function"
    }
  ],
  "transactionHash": "0xb4d79952f966e72c18f744e2ffdba4a07b565387bf592ec875de6545a7e3b508",
  "args": [
    "0x4ec28d7b5A0daE81A4ac4aE017BfE17786aE7aB2",
    "0x3C7c906791B4055013d08e5Fb210224fC4cA4EBd"
  ],
  "solcInputHash": "a22ee48a07e53fd8dd098329f265b29c",
  "bytecode": "0x60806040523480156200001157600080fd5b50604051620013ac380380620013ac833981016040819052620000349162000192565b6200003f3362000125565b6001600160a01b0382166200009b5760405162461bcd60e51b815260206004820152601860248201527f456d707479204e46544c20746f6b656e2061646472657373000000000000000060448201526064015b60405180910390fd5b6001600160a01b038116620000f35760405162461bcd60e51b815260206004820152601460248201527f456d707479206865726f65732061646472657373000000000000000000000000604482015260640162000092565b600180546001600160a01b039384166001600160a01b03199182161790915560028054929093169116179055620001ca565b600080546001600160a01b038381166001600160a01b0319831681178455604051919092169283917f8be0079c531659141344cd1fd0a4f28419497f9722a3daafe3b4186f6b6457e09190a35050565b80516001600160a01b03811681146200018d57600080fd5b919050565b60008060408385031215620001a657600080fd5b620001b18362000175565b9150620001c16020840162000175565b90509250929050565b6111d280620001da6000396000f3fe608060405234801561001057600080fd5b506004361061012c5760003560e01c8063acee67c8116100ad578063d9a7c1f911610071578063d9a7c1f914610364578063ddc632621461036d578063e81c712714610380578063f2fde38b14610393578063fbac4fd7146103a657600080fd5b8063acee67c814610235578063be9a655514610248578063cb913c8214610250578063ce325bf814610274578063d5a44f861461031b57600080fd5b806363c28db1116100f457806363c28db1146101d6578063715018a6146101f65780638da5cb5b146101fe5780639ce6d2461461020f578063a694fc3a1461022257600080fd5b806307da68f5146101315780630d8753e21461013b578063150b7a02146101615780632d58af1d146101985780632e17de78146101c3575b600080fd5b6101396103b9565b005b61014e610149366004611030565b610454565b6040519081526020015b60405180910390f35b61017f61016f366004610f08565b630a85bd0160e11b949350505050565b6040516001600160e01b03199091168152602001610158565b6002546101ab906001600160a01b031681565b6040516001600160a01b039091168152602001610158565b6101396101d1366004611030565b6104e4565b6101e96101e4366004610ee6565b61076b565b6040516101589190611062565b6101396107d7565b6000546001600160a01b03166101ab565b61013961021d366004610fe4565b61080d565b610139610230366004611030565b610a0d565b610139610243366004611030565b610b0d565b610139610b7a565b60005461026490600160a01b900460ff1681565b6040519015158152602001610158565b6102e9610282366004611030565b600090815260036020818152604092839020835160a081018552815460ff811615158083526101009091046001600160a01b031693820184905260018301549582018690526002830154606083018190529290940154608090910181905292949193929091565b6040805195151586526001600160a01b039094166020860152928401919091526060830152608082015260a001610158565b6102e9610329366004611030565b6003602081905260009182526040909120805460018201546002830154929093015460ff8216936101009092046001600160a01b0316929085565b61014e60055481565b61013961037b366004611030565b610c13565b61014e61038e366004610fe4565b610d1c565b6101396103a1366004610ee6565b610d4d565b6001546101ab906001600160a01b031681565b6000546001600160a01b031633146103ec5760405162461bcd60e51b81526004016103e3906110a6565b60405180910390fd5b600054600160a01b900460ff166104455760405162461bcd60e51b815260206004820152601a60248201527f5374616b6573206172652073746f7070656420616c726561647900000000000060448201526064016103e3565b6000805460ff60a01b19169055565b600254604051634875869760e01b8152600481018390526000916001600160a01b03169063487586979060240160206040518083038186803b15801561049957600080fd5b505afa1580156104ad573d6000803e3d6000fd5b505050506040513d601f19601f820116820180604052508101906104d19190611049565b6005546104de91906110f3565b92915050565b60008181526003602052604090205461010090046001600160a01b031633146105465760405162461bcd60e51b815260206004820152601460248201527329b2b73232b91034b9903737ba1039ba30b5b2b960611b60448201526064016103e3565b60008181526003602052604090205460ff166105975760405162461bcd60e51b815260206004820152601060248201526f556e7374616b656420616c726561647960801b60448201526064016103e3565b6105a081610de8565b600081815260036020526040812080546001600160a81b03191690555b336000908152600460205260409020548110156106cf573360009081526004602052604090208054839190839081106105f8576105f8611170565b906000526020600020015414156106bf573360009081526004602052604081205461062590600190611112565b3360009081526004602052604090208054919250908290811061064a5761064a611170565b60009182526020808320909101543383526004909152604090912080548490811061067757610677611170565b60009182526020808320909101929092553381526004909152604090208054806106a3576106a361115a565b60019003818190600052602060002001600090559055506106cf565b6106c881611129565b90506105bd565b50604051819033907f85082129d87b2fe11527cb1b3b7a520aeb5aa6913f88a3d8757fe40d1db02fdd90600090a3600254604051632142170760e11b8152306004820152336024820152604481018390526001600160a01b03909116906342842e0e906064015b600060405180830381600087803b15801561075057600080fd5b505af1158015610764573d6000803e3d6000fd5b5050505050565b6001600160a01b0381166000908152600460209081526040918290208054835181840281018401909452808452606093928301828280156107cb57602002820191906000526020600020905b8154815260200190600101908083116107b7575b50505050509050919050565b6000546001600160a01b031633146108015760405162461bcd60e51b81526004016103e3906110a6565b61080b6000610e7a565b565b6000546001600160a01b031633146108375760405162461bcd60e51b81526004016103e3906110a6565b6001600160a01b0382166108865760405162461bcd60e51b8152602060048201526016602482015275456d707479207265636569766572206164647265737360501b60448201526064016103e3565b600081116108c45760405162461bcd60e51b815260206004820152600b60248201526a16995c9bc8185b5bdd5b9d60aa1b60448201526064016103e3565b6001546040516370a0823160e01b815230600482015282916001600160a01b0316906370a082319060240160206040518083038186803b15801561090757600080fd5b505afa15801561091b573d6000803e3d6000fd5b505050506040513d601f19601f8201168201806040525081019061093f9190611049565b10156109815760405162461bcd60e51b81526020600482015260116024820152704e6f7420656e6f75676820746f6b656e7360781b60448201526064016103e3565b60015460405163a9059cbb60e01b81526001600160a01b038481166004830152602482018490529091169063a9059cbb906044015b602060405180830381600087803b1580156109d057600080fd5b505af11580156109e4573d6000803e3d6000fd5b505050506040513d601f19601f82011682018060405250810190610a08919061100e565b505050565b600054600160a01b900460ff16610a585760405162461bcd60e51b815260206004820152600f60248201526e39ba30b5b29d103737ba1037b832b760891b60448201526064016103e3565b600081815260036020908152604080832080543361010081026001600160a81b03199092169190911760019081178355429281019290925580855260048452828520805492830181558552928420018490555183927febedb8b3c678666e7f36970bc8f57abf6d8fa2e828c0da91ea5b75bf68ed101a91a3600254604051632142170760e11b8152336004820152306024820152604481018390526001600160a01b03909116906342842e0e90606401610736565b6000546001600160a01b03163314610b375760405162461bcd60e51b81526004016103e3906110a6565b60008111610b755760405162461bcd60e51b815260206004820152600b60248201526a16995c9bc81c995dd85c9960aa1b60448201526064016103e3565b600555565b6000546001600160a01b03163314610ba45760405162461bcd60e51b81526004016103e3906110a6565b600054600160a01b900460ff1615610bfe5760405162461bcd60e51b815260206004820152601760248201527f5374616b657320617265206f70656e20616c726561647900000000000000000060448201526064016103e3565b6000805460ff60a01b1916600160a01b179055565b610c1c81610de8565b6000818152600360208190526040822090810154600290910154610c409190611112565b905080610c8f5760405162461bcd60e51b815260206004820152601860248201527f6861727665737461626c655969656c64206973207a65726f000000000000000060448201526064016103e3565b600082815260036020819052604091829020600281015491015551829033907f71bab65ced2e5750775a0613be067df48ef06cf92a496ebf7663ae066092495490610cdd9085815260200190565b60405180910390a360015460405163a9059cbb60e01b8152336004820152602481018390526001600160a01b039091169063a9059cbb906044016109b6565b60046020528160005260406000208181548110610d3857600080fd5b90600052602060002001600091509150505481565b6000546001600160a01b03163314610d775760405162461bcd60e51b81526004016103e3906110a6565b6001600160a01b038116610ddc5760405162461bcd60e51b815260206004820152602660248201527f4f776e61626c653a206e6577206f776e657220697320746865207a65726f206160448201526564647265737360d01b60648201526084016103e3565b610de581610e7a565b50565b60008181526003602052604090205460ff1615610de557600081815260036020526040812060010154429190610e1e9083611112565b9050600081610e2c85610454565b610e3691906110f3565b905080600360008681526020019081526020016000206002016000828254610e5e91906110db565b9091555050506000928352506003602052604090912060010155565b600080546001600160a01b038381166001600160a01b0319831681178455604051919092169283917f8be0079c531659141344cd1fd0a4f28419497f9722a3daafe3b4186f6b6457e09190a35050565b80356001600160a01b0381168114610ee157600080fd5b919050565b600060208284031215610ef857600080fd5b610f0182610eca565b9392505050565b60008060008060808587031215610f1e57600080fd5b610f2785610eca565b9350610f3560208601610eca565b925060408501359150606085013567ffffffffffffffff80821115610f5957600080fd5b818701915087601f830112610f6d57600080fd5b813581811115610f7f57610f7f611186565b604051601f8201601f19908116603f01168101908382118183101715610fa757610fa7611186565b816040528281528a6020848701011115610fc057600080fd5b82602086016020830137600060208483010152809550505050505092959194509250565b60008060408385031215610ff757600080fd5b61100083610eca565b946020939093013593505050565b60006020828403121561102057600080fd5b81518015158114610f0157600080fd5b60006020828403121561104257600080fd5b5035919050565b60006020828403121561105b57600080fd5b5051919050565b6020808252825182820181905260009190848201906040850190845b8181101561109a5783518352928401929184019160010161107e565b50909695505050505050565b6020808252818101527f4f776e61626c653a2063616c6c6572206973206e6f7420746865206f776e6572604082015260600190565b600082198211156110ee576110ee611144565b500190565b600081600019048311821515161561110d5761110d611144565b500290565b60008282101561112457611124611144565b500390565b600060001982141561113d5761113d611144565b5060010190565b634e487b7160e01b600052601160045260246000fd5b634e487b7160e01b600052603160045260246000fd5b634e487b7160e01b600052603260045260246000fd5b634e487b7160e01b600052604160045260246000fdfea26469706673582212202b516026138729db08d7ecfe3fbedebd941ccbf255c4a033091adeef4b70665c64736f6c63430008070033",
  "devdoc": {
    "kind": "dev",
    "methods": {
      "constructor": {
        "details": "the constructor arguments:",
        "params": {
          "_heroesAddress": "address of token - the same accepted for staking",
          "_nftlAddress": "address of token - the same used to pay rewards"
        }
      },
      "getStake(uint256)": {
        "details": "get the individual stake parameters of the user's staked token",
        "params": {
          "_tokenId": "token stake index"
        },
        "returns": {
          "harvestedYield": "The part of yield user harvested already",
          "lastUpdateTime": "time of start staking",
          "staked": "the status of stake",
          "stakerAddress": "address of staker",
          "totalYield": "entire yield for the stake"
        }
      },
      "harvest(uint256)": {
        "details": "harvest accumulated rewards. Can be called many times.",
        "params": {
          "_tokenId": "Id of the token to be harvest"
        }
      },
      "onERC721Received(address,address,uint256,bytes)": {
        "details": "See {IERC721Receiver-onERC721Received}. Always returns `IERC721Receiver.onERC721Received.selector`."
      },
      "owner()": {
        "details": "Returns the address of the current owner."
      },
      "renounceOwnership()": {
        "details": "Leaves the contract without owner. It will not be possible to call `onlyOwner` functions anymore. Can only be called by the current owner. NOTE: Renouncing ownership will leave the contract without an owner, thereby removing any functionality that is only available to the owner."
      },
      "setBaseRewardPerSecond(uint256)": {
        "details": "set base reward for tokens",
        "params": {
          "_baseRewardPerSecond": "base reward in second"
        }
      },
      "stake(uint256)": {
        "details": "submit the stake",
        "params": {
          "_tokenId": "id of hero token"
        }
      },
      "start()": {
        "details": "start accepting new stakes. Called only by the owner"
      },
      "stop()": {
        "details": "stop accepting new stakes. Called only by the owner"
      },
      "transferOwnership(address)": {
        "details": "Transfers ownership of the contract to a new account (`newOwner`). Can only be called by the current owner."
      },
      "unstake(uint256)": {
        "details": "withdraw the user's staked token",
        "params": {
          "_tokenId": "id of hero token"
        }
      },
      "withdrawNftl(address,uint256)": {
        "details": "the owner is able to withdraw excess tokens",
        "params": {
          "_amount": "amount of tokens in atto (1e-18) units",
          "_to": "address who will receive the funds"
        }
      }
    },
    "version": 1
  },
  "userdoc": {
    "kind": "user",
    "methods": {},
    "version": 1
  },
  "storageLayout": {
    "storage": [
      {
        "astId": 2415,
        "contract": "contracts/NFTStaking.sol:NFTStaking",
        "label": "_owner",
        "offset": 0,
        "slot": "0",
        "type": "t_address"
      },
      {
        "astId": 5418,
        "contract": "contracts/NFTStaking.sol:NFTStaking",
        "label": "stakesOpen",
        "offset": 20,
        "slot": "0",
        "type": "t_bool"
      },
      {
        "astId": 5421,
        "contract": "contracts/NFTStaking.sol:NFTStaking",
        "label": "nftlToken",
        "offset": 0,
        "slot": "1",
        "type": "t_contract(IERC20)3135"
      },
      {
        "astId": 5424,
        "contract": "contracts/NFTStaking.sol:NFTStaking",
        "label": "heroesToken",
        "offset": 0,
        "slot": "2",
        "type": "t_contract(Collection)5395"
      },
      {
        "astId": 5429,
        "contract": "contracts/NFTStaking.sol:NFTStaking",
        "label": "stakes",
        "offset": 0,
        "slot": "3",
        "type": "t_mapping(t_uint256,t_struct(StakeInfo)5416_storage)"
      },
      {
        "astId": 5434,
        "contract": "contracts/NFTStaking.sol:NFTStaking",
        "label": "stakedTokens",
        "offset": 0,
        "slot": "4",
        "type": "t_mapping(t_address,t_array(t_uint256)dyn_storage)"
      },
      {
        "astId": 5436,
        "contract": "contracts/NFTStaking.sol:NFTStaking",
        "label": "baseRewardPerSecond",
        "offset": 0,
        "slot": "5",
        "type": "t_uint256"
      }
    ],
    "types": {
      "t_address": {
        "encoding": "inplace",
        "label": "address",
        "numberOfBytes": "20"
      },
      "t_array(t_uint256)dyn_storage": {
        "base": "t_uint256",
        "encoding": "dynamic_array",
        "label": "uint256[]",
        "numberOfBytes": "32"
      },
      "t_bool": {
        "encoding": "inplace",
        "label": "bool",
        "numberOfBytes": "1"
      },
      "t_contract(Collection)5395": {
        "encoding": "inplace",
        "label": "contract Collection",
        "numberOfBytes": "20"
      },
      "t_contract(IERC20)3135": {
        "encoding": "inplace",
        "label": "contract IERC20",
        "numberOfBytes": "20"
      },
      "t_mapping(t_address,t_array(t_uint256)dyn_storage)": {
        "encoding": "mapping",
        "key": "t_address",
        "label": "mapping(address => uint256[])",
        "numberOfBytes": "32",
        "value": "t_array(t_uint256)dyn_storage"
      },
      "t_mapping(t_uint256,t_struct(StakeInfo)5416_storage)": {
        "encoding": "mapping",
        "key": "t_uint256",
        "label": "mapping(uint256 => struct NFTStaking.StakeInfo)",
        "numberOfBytes": "32",
        "value": "t_struct(StakeInfo)5416_storage"
      },
      "t_struct(StakeInfo)5416_storage": {
        "encoding": "inplace",
        "label": "struct NFTStaking.StakeInfo",
        "members": [
          {
            "astId": 5407,
            "contract": "contracts/NFTStaking.sol:NFTStaking",
            "label": "staked",
            "offset": 0,
            "slot": "0",
            "type": "t_bool"
          },
          {
            "astId": 5409,
            "contract": "contracts/NFTStaking.sol:NFTStaking",
            "label": "stakerAddress",
            "offset": 1,
            "slot": "0",
            "type": "t_address"
          },
          {
            "astId": 5411,
            "contract": "contracts/NFTStaking.sol:NFTStaking",
            "label": "lastUpdateTime",
            "offset": 0,
            "slot": "1",
            "type": "t_uint256"
          },
          {
            "astId": 5413,
            "contract": "contracts/NFTStaking.sol:NFTStaking",
            "label": "totalYield",
            "offset": 0,
            "slot": "2",
            "type": "t_uint256"
          },
          {
            "astId": 5415,
            "contract": "contracts/NFTStaking.sol:NFTStaking",
            "label": "harvestedYield",
            "offset": 0,
            "slot": "3",
            "type": "t_uint256"
          }
        ],
        "numberOfBytes": "128"
      },
      "t_uint256": {
        "encoding": "inplace",
        "label": "uint256",
        "numberOfBytes": "32"
      }
    }
  }
}