{
  "address": "0x7FC0362f63A370e28EF091326B31BAc774E88F74",
  "abi": [
    {
      "anonymous": false,
      "inputs": [
        {
          "indexed": true,
          "internalType": "address",
          "name": "user",
          "type": "address"
        },
        {
          "indexed": true,
          "internalType": "uint256",
          "name": "tokenId",
          "type": "uint256"
        },
        {
          "indexed": false,
          "internalType": "uint256",
          "name": "amount",
          "type": "uint256"
        }
      ],
      "name": "Harvest",
      "type": "event"
    },
    {
      "anonymous": false,
      "inputs": [
        {
          "indexed": true,
          "internalType": "address",
          "name": "previousOwner",
          "type": "address"
        },
        {
          "indexed": true,
          "internalType": "address",
          "name": "newOwner",
          "type": "address"
        }
      ],
      "name": "OwnershipTransferred",
      "type": "event"
    },
    {
      "anonymous": false,
      "inputs": [
        {
          "indexed": true,
          "internalType": "address",
          "name": "user",
          "type": "address"
        },
        {
          "indexed": true,
          "internalType": "uint256",
          "name": "tokenId",
          "type": "uint256"
        }
      ],
      "name": "Stake",
      "type": "event"
    },
    {
      "anonymous": false,
      "inputs": [
        {
          "indexed": true,
          "internalType": "address",
          "name": "user",
          "type": "address"
        },
        {
          "indexed": true,
          "internalType": "uint256",
          "name": "tokenId",
          "type": "uint256"
        }
      ],
      "name": "Unstake",
      "type": "event"
    },
    {
      "inputs": [],
      "name": "baseRewardPerSecond",
      "outputs": [
        {
          "internalType": "uint256",
          "name": "",
          "type": "uint256"
        }
      ],
      "stateMutability": "view",
      "type": "function"
    },
    {
      "inputs": [
        {
          "internalType": "uint256",
          "name": "_tokenId",
          "type": "uint256"
        }
      ],
      "name": "getRewardSinceLastUpdate",
      "outputs": [
        {
          "internalType": "uint256",
          "name": "rewardSinceLastUpdate",
          "type": "uint256"
        }
      ],
      "stateMutability": "view",
      "type": "function"
    },
    {
      "inputs": [
        {
          "internalType": "uint256",
          "name": "_tokenId",
          "type": "uint256"
        }
      ],
      "name": "getStake",
      "outputs": [
        {
          "internalType": "bool",
          "name": "staked",
          "type": "bool"
        },
        {
          "internalType": "address",
          "name": "stakerAddress",
          "type": "address"
        },
        {
          "internalType": "uint256",
          "name": "lastUpdateTime",
          "type": "uint256"
        },
        {
          "internalType": "uint256",
          "name": "totalYield",
          "type": "uint256"
        },
        {
          "internalType": "uint256",
          "name": "harvestedYield",
          "type": "uint256"
        }
      ],
      "stateMutability": "view",
      "type": "function"
    },
    {
      "inputs": [
        {
          "internalType": "address",
          "name": "_staker",
          "type": "address"
        }
      ],
      "name": "getStakedTokens",
      "outputs": [
        {
          "internalType": "uint256[]",
          "name": "",
          "type": "uint256[]"
        }
      ],
      "stateMutability": "view",
      "type": "function"
    },
    {
      "inputs": [
        {
          "internalType": "uint256",
          "name": "_tokenId",
          "type": "uint256"
        }
      ],
      "name": "getTokenRewardPerSecond",
      "outputs": [
        {
          "internalType": "uint256",
          "name": "rewardPerSecond",
          "type": "uint256"
        }
      ],
      "stateMutability": "view",
      "type": "function"
    },
    {
      "inputs": [
        {
          "internalType": "uint256",
          "name": "_tokenId",
          "type": "uint256"
        }
      ],
      "name": "harvest",
      "outputs": [],
      "stateMutability": "nonpayable",
      "type": "function"
    },
    {
      "inputs": [],
      "name": "heroesToken",
      "outputs": [
        {
          "internalType": "contract Collection",
          "name": "",
          "type": "address"
        }
      ],
      "stateMutability": "view",
      "type": "function"
    },
    {
      "inputs": [
        {
          "internalType": "address",
          "name": "_nftlAddress",
          "type": "address"
        },
        {
          "internalType": "address",
          "name": "_heroesAddress",
          "type": "address"
        }
      ],
      "name": "initialize",
      "outputs": [],
      "stateMutability": "nonpayable",
      "type": "function"
    },
    {
      "inputs": [],
      "name": "nftlToken",
      "outputs": [
        {
          "internalType": "contract IERC20",
          "name": "",
          "type": "address"
        }
      ],
      "stateMutability": "view",
      "type": "function"
    },
    {
      "inputs": [
        {
          "internalType": "address",
          "name": "",
          "type": "address"
        },
        {
          "internalType": "address",
          "name": "",
          "type": "address"
        },
        {
          "internalType": "uint256",
          "name": "",
          "type": "uint256"
        },
        {
          "internalType": "bytes",
          "name": "",
          "type": "bytes"
        }
      ],
      "name": "onERC721Received",
      "outputs": [
        {
          "internalType": "bytes4",
          "name": "",
          "type": "bytes4"
        }
      ],
      "stateMutability": "nonpayable",
      "type": "function"
    },
    {
      "inputs": [],
      "name": "owner",
      "outputs": [
        {
          "internalType": "address",
          "name": "",
          "type": "address"
        }
      ],
      "stateMutability": "view",
      "type": "function"
    },
    {
      "inputs": [],
      "name": "renounceOwnership",
      "outputs": [],
      "stateMutability": "nonpayable",
      "type": "function"
    },
    {
      "inputs": [
        {
          "internalType": "uint256",
          "name": "_baseRewardPerSecond",
          "type": "uint256"
        }
      ],
      "name": "setBaseRewardPerSecond",
      "outputs": [],
      "stateMutability": "nonpayable",
      "type": "function"
    },
    {
      "inputs": [
        {
          "internalType": "address",
          "name": "_nftlAddress",
          "type": "address"
        }
      ],
      "name": "setNftl",
      "outputs": [],
      "stateMutability": "nonpayable",
      "type": "function"
    },
    {
      "inputs": [
        {
          "internalType": "uint256",
          "name": "_tokenId",
          "type": "uint256"
        }
      ],
      "name": "stake",
      "outputs": [],
      "stateMutability": "nonpayable",
      "type": "function"
    },
    {
      "inputs": [
        {
          "internalType": "address",
          "name": "",
          "type": "address"
        },
        {
          "internalType": "uint256",
          "name": "",
          "type": "uint256"
        }
      ],
      "name": "stakedTokens",
      "outputs": [
        {
          "internalType": "uint256",
          "name": "",
          "type": "uint256"
        }
      ],
      "stateMutability": "view",
      "type": "function"
    },
    {
      "inputs": [
        {
          "internalType": "uint256",
          "name": "",
          "type": "uint256"
        }
      ],
      "name": "stakes",
      "outputs": [
        {
          "internalType": "bool",
          "name": "staked",
          "type": "bool"
        },
        {
          "internalType": "address",
          "name": "stakerAddress",
          "type": "address"
        },
        {
          "internalType": "uint256",
          "name": "lastUpdateTime",
          "type": "uint256"
        },
        {
          "internalType": "uint256",
          "name": "totalYield",
          "type": "uint256"
        },
        {
          "internalType": "uint256",
          "name": "harvestedYield",
          "type": "uint256"
        }
      ],
      "stateMutability": "view",
      "type": "function"
    },
    {
      "inputs": [],
      "name": "stakesOpen",
      "outputs": [
        {
          "internalType": "bool",
          "name": "",
          "type": "bool"
        }
      ],
      "stateMutability": "view",
      "type": "function"
    },
    {
      "inputs": [],
      "name": "start",
      "outputs": [],
      "stateMutability": "nonpayable",
      "type": "function"
    },
    {
      "inputs": [],
      "name": "stop",
      "outputs": [],
      "stateMutability": "nonpayable",
      "type": "function"
    },
    {
      "inputs": [
        {
          "internalType": "address",
          "name": "newOwner",
          "type": "address"
        }
      ],
      "name": "transferOwnership",
      "outputs": [],
      "stateMutability": "nonpayable",
      "type": "function"
    },
    {
      "inputs": [
        {
          "internalType": "uint256",
          "name": "_tokenId",
          "type": "uint256"
        }
      ],
      "name": "unstake",
      "outputs": [],
      "stateMutability": "nonpayable",
      "type": "function"
    },
    {
      "inputs": [
        {
          "internalType": "address",
          "name": "_to",
          "type": "address"
        },
        {
          "internalType": "uint256",
          "name": "_amount",
          "type": "uint256"
        }
      ],
      "name": "withdrawNftl",
      "outputs": [],
      "stateMutability": "nonpayable",
      "type": "function"
    }
  ],
  "transactionHash": "0x6ed2159a58323e9f621d6fecdd56ba36e429d348e20502b3ce8c19b5f21540e1",
  "args": [],
  "solcInputHash": "2c35124f00298ec594f24cb3c9ea8495",
  "bytecode": "0x608060405234801561001057600080fd5b5061178a806100206000396000f3fe608060405234801561001057600080fd5b506004361061014d5760003560e01c80639ce6d246116100c3578063d5a44f861161007c578063d5a44f861461030c578063d9a7c1f914610353578063ddc632621461035c578063e81c71271461036f578063f2fde38b14610382578063fbac4fd71461039557600080fd5b80639ce6d24614610269578063a694fc3a1461027c578063acee67c81461028f578063be9a6555146102a2578063cb913c82146102aa578063ce325bf8146102c757600080fd5b8063388cf9b011610115578063388cf9b0146101f7578063485cc9551461020a57806363c28db11461021d578063715018a61461023d5780638da5cb5b1461024557806399d5edf51461025657600080fd5b806307da68f5146101525780630d8753e21461015c578063150b7a02146101825780632d58af1d146101b95780632e17de78146101e4575b600080fd5b61015a6103ad565b005b61016f61016a366004611585565b61043e565b6040519081526020015b60405180910390f35b6101a0610190366004611457565b630a85bd0160e11b949350505050565b6040516001600160e01b03199091168152602001610179565b6098546101cc906001600160a01b031681565b6040516001600160a01b039091168152602001610179565b61015a6101f2366004611585565b6104ce565b61015a6102053660046113dd565b61075e565b61015a61021836600461141e565b6107b0565b61023061022b3660046113dd565b610908565b60405161017991906115b7565b61015a610974565b6033546001600160a01b03166101cc565b61016f610264366004611585565b6109aa565b61015a610277366004611537565b6109fc565b61015a61028a366004611585565b610c02565b61015a61029d366004611585565b610d2f565b61015a610d5e565b6097546102b79060ff1681565b6040519015158152602001610179565b6102da6102d5366004611585565b610dea565b6040805195151586526001600160a01b039094166020860152928401919091526060830152608082015260a001610179565b6102da61031a366004611585565b609960205260009081526040902080546001820154600283015460039093015460ff8316936101009093046001600160a01b0316929085565b61016f609b5481565b61015a61036a366004611585565b610e73565b61016f61037d366004611537565b61102b565b61015a6103903660046113dd565b61105c565b6097546101cc9061010090046001600160a01b031681565b6033546001600160a01b031633146103e05760405162461bcd60e51b81526004016103d790611649565b60405180910390fd5b60975460ff166104325760405162461bcd60e51b815260206004820152601a60248201527f5374616b6573206172652073746f7070656420616c726561647900000000000060448201526064016103d7565b6097805460ff19169055565b609854604051634875869760e01b8152600481018390526000916001600160a01b03169063487586979060240160206040518083038186803b15801561048357600080fd5b505afa158015610497573d6000803e3d6000fd5b505050506040513d601f19601f820116820180604052508101906104bb919061159e565b609b546104c89190611696565b92915050565b60008181526099602052604090205461010090046001600160a01b031633146105305760405162461bcd60e51b815260206004820152601460248201527329b2b73232b91034b9903737ba1039ba30b5b2b960611b60448201526064016103d7565b60008181526099602052604090205460ff166105815760405162461bcd60e51b815260206004820152601060248201526f556e7374616b656420616c726561647960801b60448201526064016103d7565b61058a816110f7565b600081815260996020526040812080546001600160a81b03191690555b336000908152609a60205260409020548110156106b957336000908152609a602052604090208054839190839081106105e2576105e2611713565b906000526020600020015414156106a957336000908152609a602052604081205461060f906001906116b5565b336000908152609a602052604090208054919250908290811061063457610634611713565b6000918252602080832090910154338352609a909152604090912080548490811061066157610661611713565b6000918252602080832090910192909255338152609a9091526040902080548061068d5761068d6116fd565b60019003818190600052602060002001600090559055506106b9565b6106b2816116cc565b90506105a7565b50604051819033907f85082129d87b2fe11527cb1b3b7a520aeb5aa6913f88a3d8757fe40d1db02fdd90600090a36106f08161118e565b609854604051632142170760e11b8152306004820152336024820152604481018390526001600160a01b03909116906342842e0e906064015b600060405180830381600087803b15801561074357600080fd5b505af1158015610757573d6000803e3d6000fd5b5050505050565b6033546001600160a01b031633146107885760405162461bcd60e51b81526004016103d790611649565b609780546001600160a01b0390921661010002610100600160a81b0319909216919091179055565b600054610100900460ff16806107c9575060005460ff16155b6107e55760405162461bcd60e51b81526004016103d7906115fb565b600054610100900460ff16158015610807576000805461ffff19166101011790555b6001600160a01b03831661085d5760405162461bcd60e51b815260206004820152601860248201527f456d707479204e46544c20746f6b656e2061646472657373000000000000000060448201526064016103d7565b6001600160a01b0382166108aa5760405162461bcd60e51b8152602060048201526014602482015273456d707479206865726f6573206164647265737360601b60448201526064016103d7565b60978054610100600160a81b0319166101006001600160a01b038681169190910291909117909155609880546001600160a01b0319169184169190911790556108f1611246565b8015610903576000805461ff00191690555b505050565b6001600160a01b0381166000908152609a602090815260409182902080548351818402810184019094528084526060939283018282801561096857602002820191906000526020600020905b815481526020019060010190808311610954575b50505050509050919050565b6033546001600160a01b0316331461099e5760405162461bcd60e51b81526004016103d790611649565b6109a860006112c1565b565b60008181526099602052604081205460ff16156109f7576000828152609960205260408120600101546109dd90426116b5565b9050806109e98461043e565b6109f39190611696565b9150505b919050565b6033546001600160a01b03163314610a265760405162461bcd60e51b81526004016103d790611649565b6001600160a01b038216610a755760405162461bcd60e51b8152602060048201526016602482015275456d707479207265636569766572206164647265737360501b60448201526064016103d7565b60008111610ab35760405162461bcd60e51b815260206004820152600b60248201526a16995c9bc8185b5bdd5b9d60aa1b60448201526064016103d7565b6097546040516370a0823160e01b8152306004820152829161010090046001600160a01b0316906370a082319060240160206040518083038186803b158015610afb57600080fd5b505afa158015610b0f573d6000803e3d6000fd5b505050506040513d601f19601f82011682018060405250810190610b33919061159e565b1015610b755760405162461bcd60e51b81526020600482015260116024820152704e6f7420656e6f75676820746f6b656e7360781b60448201526064016103d7565b60975460405163a9059cbb60e01b81526001600160a01b038481166004830152602482018490526101009092049091169063a9059cbb906044015b602060405180830381600087803b158015610bca57600080fd5b505af1158015610bde573d6000803e3d6000fd5b505050506040513d601f19601f820116820180604052508101906109039190611563565b60975460ff16610c465760405162461bcd60e51b815260206004820152600f60248201526e39ba30b5b29d103737ba1037b832b760891b60448201526064016103d7565b6000818152609960205260409020805460016001600160a81b031990911661010033021781178255429082015560020154610ca557610c848161043e565b610c92906301e13380611696565b6000828152609960205260409020600201555b336000818152609a602090815260408083208054600181018255908452918320909101849055518392917febedb8b3c678666e7f36970bc8f57abf6d8fa2e828c0da91ea5b75bf68ed101a91a3609854604051632142170760e11b8152336004820152306024820152604481018390526001600160a01b03909116906342842e0e90606401610729565b6033546001600160a01b03163314610d595760405162461bcd60e51b81526004016103d790611649565b609b55565b6033546001600160a01b03163314610d885760405162461bcd60e51b81526004016103d790611649565b60975460ff1615610ddb5760405162461bcd60e51b815260206004820152601760248201527f5374616b657320617265206f70656e20616c726561647900000000000000000060448201526064016103d7565b6097805460ff19166001179055565b6000818152609960209081526040808320815160a081018352815460ff811615158083526101009091046001600160a01b031694820185905260018301549382018490526002830154606083015260039092015460808201529093908190610e51876109aa565b8160600151610e60919061167e565b9250806080015191505091939590929450565b6098546040516331a9108f60e11b8152600481018390526000916001600160a01b031690636352211e9060240160206040518083038186803b158015610eb857600080fd5b505afa158015610ecc573d6000803e3d6000fd5b505050506040513d601f19601f82011682018060405250810190610ef09190611401565b90506001600160a01b038116301415610f735760008281526099602052604090205461010090046001600160a01b03163314610f655760405162461bcd60e51b815260206004820152601460248201527329b2b73232b91034b9903737ba1039ba30b5b2b960611b60448201526064016103d7565b610f6e826110f7565b610fc2565b336001600160a01b03821614610fc25760405162461bcd60e51b815260206004820152601460248201527329b2b73232b91034b9903737ba103437b63232b960611b60448201526064016103d7565b600082815260996020526040902060038101546002909101541161101e5760405162461bcd60e51b8152602060048201526013602482015272139bc81a185c9d995cdd18589b19565a595b19606a1b60448201526064016103d7565b6110278261118e565b5050565b609a602052816000526040600020818154811061104757600080fd5b90600052602060002001600091509150505481565b6033546001600160a01b031633146110865760405162461bcd60e51b81526004016103d790611649565b6001600160a01b0381166110eb5760405162461bcd60e51b815260206004820152602660248201527f4f776e61626c653a206e6577206f776e657220697320746865207a65726f206160448201526564647265737360d01b60648201526084016103d7565b6110f4816112c1565b50565b60008181526099602052604090205460ff166111485760405162461bcd60e51b815260206004820152601060248201526f151bdad95b881b9bdd081cdd185ad95960821b60448201526064016103d7565b611151816109aa565b6000828152609960205260408120600201805490919061117290849061167e565b9091555050600090815260996020526040902042600190910155565b600081815260996020526040812060038101546002909101546111b191906116b5565b60008381526099602052604090819020600281015460039091015551909150829033907f71bab65ced2e5750775a0613be067df48ef06cf92a496ebf7663ae0660924954906112039085815260200190565b60405180910390a360975460405163a9059cbb60e01b8152336004820152602481018390526101009091046001600160a01b03169063a9059cbb90604401610bb0565b600054610100900460ff168061125f575060005460ff16155b61127b5760405162461bcd60e51b81526004016103d7906115fb565b600054610100900460ff1615801561129d576000805461ffff19166101011790555b6112a5611313565b6112ad61137d565b80156110f4576000805461ff001916905550565b603380546001600160a01b038381166001600160a01b0319831681179093556040519116919082907f8be0079c531659141344cd1fd0a4f28419497f9722a3daafe3b4186f6b6457e090600090a35050565b600054610100900460ff168061132c575060005460ff16155b6113485760405162461bcd60e51b81526004016103d7906115fb565b600054610100900460ff161580156112ad576000805461ffff191661010117905580156110f4576000805461ff001916905550565b600054610100900460ff1680611396575060005460ff16155b6113b25760405162461bcd60e51b81526004016103d7906115fb565b600054610100900460ff161580156113d4576000805461ffff19166101011790555b6112ad336112c1565b6000602082840312156113ef57600080fd5b81356113fa8161173f565b9392505050565b60006020828403121561141357600080fd5b81516113fa8161173f565b6000806040838503121561143157600080fd5b823561143c8161173f565b9150602083013561144c8161173f565b809150509250929050565b6000806000806080858703121561146d57600080fd5b84356114788161173f565b935060208501356114888161173f565b925060408501359150606085013567ffffffffffffffff808211156114ac57600080fd5b818701915087601f8301126114c057600080fd5b8135818111156114d2576114d2611729565b604051601f8201601f19908116603f011681019083821181831017156114fa576114fa611729565b816040528281528a602084870101111561151357600080fd5b82602086016020830137600060208483010152809550505050505092959194509250565b6000806040838503121561154a57600080fd5b82356115558161173f565b946020939093013593505050565b60006020828403121561157557600080fd5b815180151581146113fa57600080fd5b60006020828403121561159757600080fd5b5035919050565b6000602082840312156115b057600080fd5b5051919050565b6020808252825182820181905260009190848201906040850190845b818110156115ef578351835292840192918401916001016115d3565b50909695505050505050565b6020808252602e908201527f496e697469616c697a61626c653a20636f6e747261637420697320616c72656160408201526d191e481a5b9a5d1a585b1a5e995960921b606082015260800190565b6020808252818101527f4f776e61626c653a2063616c6c6572206973206e6f7420746865206f776e6572604082015260600190565b60008219821115611691576116916116e7565b500190565b60008160001904831182151516156116b0576116b06116e7565b500290565b6000828210156116c7576116c76116e7565b500390565b60006000198214156116e0576116e06116e7565b5060010190565b634e487b7160e01b600052601160045260246000fd5b634e487b7160e01b600052603160045260246000fd5b634e487b7160e01b600052603260045260246000fd5b634e487b7160e01b600052604160045260246000fd5b6001600160a01b03811681146110f457600080fdfea26469706673582212200f92218706c5cfd3398c35ab44cdd1d062f53e69214f933f38721bcab870930a64736f6c63430008070033",
  "devdoc": {
    "kind": "dev",
    "methods": {
      "getRewardSinceLastUpdate(uint256)": {
        "details": "return unaccounted reward that is not reflected in the contract state for staked tokens this function returns value that increments each block. For tokens that are not staked it returns 0",
        "params": {
          "_tokenId": "index of the token"
        },
        "returns": {
          "rewardSinceLastUpdate": "reward tokens that were accumulated sinceLastUpdate"
        }
      },
      "getStake(uint256)": {
        "details": "get the individual stake parameters of the user's staked token",
        "params": {
          "_tokenId": "token stake index"
        },
        "returns": {
          "harvestedYield": "The part of yield user harvested already",
          "lastUpdateTime": "time of start staking",
          "staked": "the status of stake",
          "stakerAddress": "address of staker",
          "totalYield": "entire yield for the stake"
        }
      },
      "getStakedTokens(address)": {
        "details": "return the array of staked token IDs",
        "params": {
          "_staker": "address of token staker"
        },
        "returns": {
          "_0": "stakedTokens array of staked token IDs"
        }
      },
      "getTokenRewardPerSecond(uint256)": {
        "details": "calculate reward speed for the given tokenId",
        "params": {
          "_tokenId": "token id"
        },
        "returns": {
          "rewardPerSecond": "in atto tokens per second"
        }
      },
      "harvest(uint256)": {
        "details": "harvest accumulated rewards. Can be called many times.",
        "params": {
          "_tokenId": "Id of the token to be harvested"
        }
      },
      "initialize(address,address)": {
        "details": "the constructor arguments:",
        "params": {
          "_heroesAddress": "address of token - the same accepted for staking",
          "_nftlAddress": "address of token - the same used to pay rewards"
        }
      },
      "onERC721Received(address,address,uint256,bytes)": {
        "details": "See {IERC721Receiver-onERC721Received}. Always returns `IERC721Receiver.onERC721Received.selector`."
      },
      "owner()": {
        "details": "Returns the address of the current owner."
      },
      "renounceOwnership()": {
        "details": "Leaves the contract without owner. It will not be possible to call `onlyOwner` functions anymore. Can only be called by the current owner. NOTE: Renouncing ownership will leave the contract without an owner, thereby removing any functionality that is only available to the owner."
      },
      "setBaseRewardPerSecond(uint256)": {
        "details": "set base reward for tokens",
        "params": {
          "_baseRewardPerSecond": "base reward in second"
        }
      },
      "setNftl(address)": {
        "details": "set token address for payment of rewards",
        "params": {
          "_nftlAddress": "address of token - the same used to pay rewards"
        }
      },
      "stake(uint256)": {
        "details": "submit the stake",
        "params": {
          "_tokenId": "id of hero token"
        }
      },
      "start()": {
        "details": "start accepting new stakes. Called only by the owner"
      },
      "stop()": {
        "details": "stop accepting new stakes. Called only by the owner"
      },
      "transferOwnership(address)": {
        "details": "Transfers ownership of the contract to a new account (`newOwner`). Can only be called by the current owner."
      },
      "unstake(uint256)": {
        "details": "withdraw the user's staked token",
        "params": {
          "_tokenId": "id of hero token"
        }
      },
      "withdrawNftl(address,uint256)": {
        "details": "the owner is able to withdraw excess tokens",
        "params": {
          "_amount": "amount of tokens in atto (1e-18) units",
          "_to": "address who will receive the funds"
        }
      }
    },
    "version": 1
  },
  "userdoc": {
    "kind": "user",
    "methods": {},
    "version": 1
  },
  "storageLayout": {
    "storage": [
      {
        "astId": 541,
        "contract": "contracts/NFTStaking.sol:NFTStaking",
        "label": "_initialized",
        "offset": 0,
        "slot": "0",
        "type": "t_bool"
      },
      {
        "astId": 544,
        "contract": "contracts/NFTStaking.sol:NFTStaking",
        "label": "_initializing",
        "offset": 1,
        "slot": "0",
        "type": "t_bool"
      },
      {
        "astId": 2337,
        "contract": "contracts/NFTStaking.sol:NFTStaking",
        "label": "__gap",
        "offset": 0,
        "slot": "1",
        "type": "t_array(t_uint256)50_storage"
      },
      {
        "astId": 420,
        "contract": "contracts/NFTStaking.sol:NFTStaking",
        "label": "_owner",
        "offset": 0,
        "slot": "51",
        "type": "t_address"
      },
      {
        "astId": 534,
        "contract": "contracts/NFTStaking.sol:NFTStaking",
        "label": "__gap",
        "offset": 0,
        "slot": "52",
        "type": "t_array(t_uint256)49_storage"
      },
      {
        "astId": 2048,
        "contract": "contracts/NFTStaking.sol:NFTStaking",
        "label": "__gap",
        "offset": 0,
        "slot": "101",
        "type": "t_array(t_uint256)50_storage"
      },
      {
        "astId": 5461,
        "contract": "contracts/NFTStaking.sol:NFTStaking",
        "label": "stakesOpen",
        "offset": 0,
        "slot": "151",
        "type": "t_bool"
      },
      {
        "astId": 5464,
        "contract": "contracts/NFTStaking.sol:NFTStaking",
        "label": "nftlToken",
        "offset": 1,
        "slot": "151",
        "type": "t_contract(IERC20)3223"
      },
      {
        "astId": 5467,
        "contract": "contracts/NFTStaking.sol:NFTStaking",
        "label": "heroesToken",
        "offset": 0,
        "slot": "152",
        "type": "t_contract(Collection)5438"
      },
      {
        "astId": 5481,
        "contract": "contracts/NFTStaking.sol:NFTStaking",
        "label": "stakes",
        "offset": 0,
        "slot": "153",
        "type": "t_mapping(t_uint256,t_struct(StakeInfo)5459_storage)"
      },
      {
        "astId": 5486,
        "contract": "contracts/NFTStaking.sol:NFTStaking",
        "label": "stakedTokens",
        "offset": 0,
        "slot": "154",
        "type": "t_mapping(t_address,t_array(t_uint256)dyn_storage)"
      },
      {
        "astId": 5488,
        "contract": "contracts/NFTStaking.sol:NFTStaking",
        "label": "baseRewardPerSecond",
        "offset": 0,
        "slot": "155",
        "type": "t_uint256"
      }
    ],
    "types": {
      "t_address": {
        "encoding": "inplace",
        "label": "address",
        "numberOfBytes": "20"
      },
      "t_array(t_uint256)49_storage": {
        "base": "t_uint256",
        "encoding": "inplace",
        "label": "uint256[49]",
        "numberOfBytes": "1568"
      },
      "t_array(t_uint256)50_storage": {
        "base": "t_uint256",
        "encoding": "inplace",
        "label": "uint256[50]",
        "numberOfBytes": "1600"
      },
      "t_array(t_uint256)dyn_storage": {
        "base": "t_uint256",
        "encoding": "dynamic_array",
        "label": "uint256[]",
        "numberOfBytes": "32"
      },
      "t_bool": {
        "encoding": "inplace",
        "label": "bool",
        "numberOfBytes": "1"
      },
      "t_contract(Collection)5438": {
        "encoding": "inplace",
        "label": "contract Collection",
        "numberOfBytes": "20"
      },
      "t_contract(IERC20)3223": {
        "encoding": "inplace",
        "label": "contract IERC20",
        "numberOfBytes": "20"
      },
      "t_mapping(t_address,t_array(t_uint256)dyn_storage)": {
        "encoding": "mapping",
        "key": "t_address",
        "label": "mapping(address => uint256[])",
        "numberOfBytes": "32",
        "value": "t_array(t_uint256)dyn_storage"
      },
      "t_mapping(t_uint256,t_struct(StakeInfo)5459_storage)": {
        "encoding": "mapping",
        "key": "t_uint256",
        "label": "mapping(uint256 => struct NFTStaking.StakeInfo)",
        "numberOfBytes": "32",
        "value": "t_struct(StakeInfo)5459_storage"
      },
      "t_struct(StakeInfo)5459_storage": {
        "encoding": "inplace",
        "label": "struct NFTStaking.StakeInfo",
        "members": [
          {
            "astId": 5450,
            "contract": "contracts/NFTStaking.sol:NFTStaking",
            "label": "staked",
            "offset": 0,
            "slot": "0",
            "type": "t_bool"
          },
          {
            "astId": 5452,
            "contract": "contracts/NFTStaking.sol:NFTStaking",
            "label": "stakerAddress",
            "offset": 1,
            "slot": "0",
            "type": "t_address"
          },
          {
            "astId": 5454,
            "contract": "contracts/NFTStaking.sol:NFTStaking",
            "label": "lastUpdateTime",
            "offset": 0,
            "slot": "1",
            "type": "t_uint256"
          },
          {
            "astId": 5456,
            "contract": "contracts/NFTStaking.sol:NFTStaking",
            "label": "totalYield",
            "offset": 0,
            "slot": "2",
            "type": "t_uint256"
          },
          {
            "astId": 5458,
            "contract": "contracts/NFTStaking.sol:NFTStaking",
            "label": "harvestedYield",
            "offset": 0,
            "slot": "3",
            "type": "t_uint256"
          }
        ],
        "numberOfBytes": "128"
      },
      "t_uint256": {
        "encoding": "inplace",
        "label": "uint256",
        "numberOfBytes": "32"
      }
    }
  }
}